:020000040800F2
:10000000C809002079020008034D00080D480008C7
:10001000014D00088D05000881580008000000000F
:100020000000000000000000000000001D4D00085E
:100030003F06000800000000054D00081F4D0008A5
:10004000930200089302000893020008930200083C
:10005000930200089302000893020008930200082C
:10006000930200089302000893020008910500081B
:10007000930200089302000893020008930200080C
:1000800093020008930200088D0400089302000800
:10009000930200089302000893020008410600083A
:1000A000B94D0008D14D000893020008C54D000865
:1000B00093020008930200089302000893020008CC
:1000C00093020008930200089302000893020008BC
:1000D0009302000893020008930200087558000874
:1000E000930200089302000893020008930200089C
:1000F000930200089302000893020008930200088C
:10010000930200089302000893020008930200087B
:10011000930200089302000893020008930200086B
:10012000930200089302000893020008930200085B
:10013000930200089302000893020008930200084B
:10014000930200089302000893020008930200083B
:10015000930200089302000893020008930200082B
:10016000930200089302000893020008930200081B
:10017000930200089302000893020008930200080B
:1001800093020008930200089302000893020008FB
:100190009302000800000000930200089302000888
:1001A00093020008930200089302000893020008DB
:1001B00093020008930200089302000893020008CB
:1001C00093020008930200089302000893020008BB
:1001D000930200089302000800F002F800F03CF8D7
:1001E0000AA090E8000C82448344AAF10107DA4592
:1001F00001D100F031F8AFF2090EBAE80F0013F0A8
:10020000010F18BFFB1A43F00103184718660000DE
:1002100038660000103A24BF78C878C1FAD852076F
:1002200024BF30C830C144BF04680C607047000070
:100230000023002400250026103A28BF78C1FBD8EF
:10024000520728BF30C148BF0B6070471FB506F08A
:1002500038FA1FBD10B510BD00F0E2F81146FFF7E7
:10026000F5FF05F0EFFD00F000F903B4FFF7F2FF32
:1002700003BC00F003F90000094880470948004723
:10028000FEE7FEE7FEE7FEE7FEE7FEE7FEE7FEE746
:10029000FEE7FEE704480549054A064B70470000A3
:1002A000A94D0008D9010008C8030020C809002092
:1002B000C8050020C805002053EA020C00F0698040
:1002C0002DE9F04B4FF00006002B1FBFB3FA83F56A
:1002D00003FA05F424FA05F65E4012BF1643B2FA9B
:1002E00082F502FA05F4C5F120051EBF22FA05FCCD
:1002F00044EA0C04203556EA044C4FEA144418BF73
:10030000641C4FF000084FF00009904271EB030CA1
:1003100039D3002919BFB1FA81F701FA07F6B0FA0B
:1003200080F700FA07F6C7F120071EBF20FA07FC86
:1003300046EA0C062037B6FBF4FCA7EB0507103F96
:1003400007F01F0BCBF120060CFA0BFB2CFA06F67C
:1003500044BFB3460026202FA4BF5E464FF0000BDB
:100360005BEA060C08BF4FF0010B19EB0B09ABFB66
:10037000027C48EB0608C01B06FB02CC0BFB03CC3F
:1003800071EB0C01C1E70B46024641464846BDE809
:10039000F08B13B54FF000004FF00001AFF3008079
:1003A000BDE81C4070474FF0000200B5134694466C
:1003B0009646203922BFA0E80C50A0E80C50B1F1BD
:1003C0002001BFF4F7AF090728BFA0E80C5048BFD1
:1003D0000CC05DF804EB890028BF40F8042B08BF6F
:1003E000704748BF20F8022B11F0804F18BF00F86B
:1003F000012B704770477047704710B500F008F840
:10040000006810BD10B5044600F002F8046010BD8D
:1004100000487047640300200048704764030020D0
:100420007546FFF7F9FFAE4605006946534620F0D2
:100430000700854618B020B5FFF72CFFBDE8204027
:100440004FF000064FF000074FF000084FF0000B90
:1004500021F00701AC46ACE8C009ACE8C009ACE843
:10046000C009ACE8C0098D46704710B50446AFF32B
:1004700000802046BDE81040FFF7F7BE0149182074
:10048000ABBEFEE7260002007047000010B504482E
:1004900001F024FEBDE81040024801F01FBE00003C
:1004A000980000200401002070B5044600688168AF
:1004B0008268C1F3400112F0010F28D039BB816876
:1004C00001F00D01012914D18168124A1140891CE3
:1004D000816021680320086002F0C4FB054612E039
:1004E00002F0C0FB401B02280DD920688068C007BD
:1004F00009D0E06D40F01000E065206E40F0010092
:100500002066012070BD20688068C007E8D1002007
:1005100070BD0000C0FFFF7F70B5044600688168B1
:1005200011F0010F2DD18168174A11421AD181684B
:10053000D5432940491C816002F094FB06461BE02C
:10054000816811F0010F03D181682940491C816045
:1005500002F088FB801B02280ED920680068C04387
:10056000C00709D0E06D40F01000E065206E40F05B
:1005700001002066012070BD20680168C943C907D9
:10058000DED1002070BD00003F000080FEE70000CB
:10059000014802F0ECB800004C0200200D4902684E
:1005A0008A4201D20C4901E00B492031D2B2142316
:1005B000083AB2FBF3F2436C02F01F0223F003038C
:1005C0001944816404498031C1640121914001656D
:1005D0007047000008040240000802400179074A01
:1005E00002EB81024265054A4432491E826501F0F0
:1005F0001F0201219140C16570470000FC080240C4
:1006000030B5D0E913456560446D14B1D0E91645A5
:10061000656090F8444004F01F050124AC40056C6F
:100620006C60046863608368102B036803D0996072
:100630000068C26030BD9A600068C16030BD70471C
:1006400010B5402002F010FA802002F00DFA4FF4AD
:10065000807002F009FABDE810404FF4007002F01B
:1006600003BA72B6FEE700002DE9F04FFA482DED0F
:10067000108B97B0DFEDF91A90EC030A20EE210AF7
:1006800070EE811A9FEDF62AF64801EEC20A80ED5F
:10069000000A30EEC10ADFEDF40AEF4C001D20EE37
:1006A000200A783C43F6FF7180ED000AB4F86A0036
:1006B000884202D2401CA4F86A0094F87010F7EE49
:1006C000008AF0EE08DA4FF0010802279FEDE7AB51
:1006D000E44800269FEDE78AB1B1DF4A94F8711033
:1006E00092ED040A012912D04FF07E52022927D040
:1006F000032932D004294BD0B4F86A100A2959D3FF
:10070000042184F8711050E084F8708012E0B4F88D
:100710006A10642909D3032184F87110A4F86A606F
:1007200084ED068A84ED188A3FE0B5EEC00AF1EE4A
:1007300010FA02D184F8717037E0B0EE000A3BE0A5
:1007400010EE101A914202D184F8718013E0C0EDCE
:10075000048A00BF84ED00AB27E0B5EEC00AF1EEDD
:1007600010FAE7D0B4F86A1042F21073994205D338
:10077000052184F87110A4F86A6016E0216E914298
:1007800001D1C4ED068AC4ED188AC0ED04DAE1E7B0
:10079000B5EEC00AF1EE10FACCD0B1EE040A80ED4D
:1007A000040A9FEDB50B84ED000BB5490968497A41
:1007B00029B108E0B1EE000A80ED040ACAE794ED21
:1007C000150A84ED020A90ED040A8146BDEEC00AC6
:1007D00010EE100A9FEDABBADFEDAB9A9FEDAB9A2E
:1007E0004FF0FF35062808D2DFE800F09903080D26
:1007F000749184ED038A84ED048A90E084ED038A89
:10080000C4ED04DA8BE094ED060AB5EEC00AF1EE11
:1008100010FA05DD94F96C00002801DC84ED128AE1
:10082000D4ED128AB5EEC00AF1EE10FA05DD94F9A6
:100830006D00002801DC84ED138A94ED130AF0EEBC
:10084000690A05F093FB84ED030AC4ED04DA94ED24
:10085000120A30EE0B0A84ED120A94ED060AB5EE88
:10086000C00AF1EE10FA02DD84F86C8011E0B5EEFA
:10087000C00AF1EE10FA02D284F86C5009E0B5EE2D
:10088000C00AF1EE10FA02D184F86C6001E084F83D
:100890006C70D4ED130AB5EEC00A48EE890AF1EE89
:1008A00010FAC4ED130A02DD84F86D8037E0B5EE6E
:1008B000C00AF1EE10FA02D284F86D502FE0B5EEC6
:1008C000C00AF1EE10FA02D184F86D6027E084F8D6
:1008D0006D7024E094ED100AF0EE690A05F046FB15
:1008E00084ED030A94ED110ADFED690A40EE608A97
:1008F000C4ED048AD4ED100A70EE8B0AC4ED100A20
:10090000DFED640A30EE200A84ED110A07E094ED71
:10091000070A84ED030A94ED020A84ED040AA24654
:1009200094ED030A05F008F9B0EE40BA94ED030A1D
:1009300004F0CAFF99ED002AD9ED010AF0EE401A41
:1009400022EE001A20EE800A00EE8B1A02EE4B0A0D
:10095000F1EE410ACDED130AB4F9681000EE901AD9
:10096000B8EEE02ADFED490A3E4994ED089A2031BD
:1009700062EE208AD1ED010A41EE608AD4ED040ACC
:1009800030EEC0EA9FED440A18EE901A434A0EEE8C
:10099000009ADFED43EADFF80CB19FED43FA914294
:1009A00002DDF0EE6E0A08E018EE901A594502D901
:1009B000F0EE4F0A01E0F0EE680A19EE101A374A1D
:1009C000914202DDB0EE6E1A08E019EE101A594598
:1009D00002D9B0EE4F1A01E0B0EE491A20EE8B0AB0
:1009E000B0EE412A20EEA11A9FED304A02EE210A14
:1009F0001C4902EE4B1A0831174C183481ED001ACD
:100A000061EE040A091D81ED000A70EE201A84EDE2
:100A1000008A84ED018A84ED028AF5EEC01AF1EEB7
:100A200010FA01D2012100E00021F0EE401A890005
:100A3000F4EEE10AF1EE10FA01DD012200E00022FD
:100A4000F0EE400A01EB4201F5EEC00AF1EE10FAB9
:100A50002EDD01202DE0000028030020ABAA2A3F54
:100A6000ABAAAA3E300000203ACD133F00000000A0
:100A70000000000000000000000000000000F03F47
:100A800000680008FE9C5B3CDB0FC94017B7D138FB
:100A90003333333FBD3786359A99193F42884741F2
:100AA00042884741428847C1428847C1D7B3DD3FAA
:100AB00000200844FE49D1ED051A9FEDFE5AFFEED5
:100AC000082AC5EE210A9FEDFC2AB7EE083ADFEDB1
:100AD000FB4ADFEDFB3A062867D2DFE800F0660349
:100AE000101B285BF0EE411A21EE031A61EEA21AE8
:100AF000F0EE402A42EE821A61EEA01A1FE021EECB
:100B0000031AF0EE401A20EE240A01EE821A61EE7A
:100B1000201A09E0F0EE401A20EE040A61EEA31A52
:100B200041EE621A61EEA01A20EE201A0BE0F0EE00
:100B3000401A21EE221A61EEA41A61EEA01A00EE0C
:100B4000021A21EE201ADF4A31EE810A10EE101A45
:100B5000914209DDC1EE800AF0EE601A71EE810A61
:100B600081EE200AB0EE401AF5EE000A31EE810A5D
:100B7000B6EE002A072835EE400A60EE200AB0EEF5
:100B8000600A01EE820A49D2DFE800F0481C1F2902
:100B900030374000F0EE401A20EE230A61EE841A4E
:100BA00001EE430A61EEA01ABEE720EE230AF0EE42
:100BB000411AB0EE402A01EE620A01EEC32A62EE4B
:100BC000201AB1E784EC020A0DE0C4ED000AF0EE51
:100BD000400A41EE020A16E084ED020A1EE0C4ED6E
:100BE000000A84ED010A01EE020AF5E7F0EE401A70
:100BF00041EE021AC4ED001A0CE0F0EE401A41EE8C
:100C0000021AC4ED001AC4ED010AE5E784ED000AFA
:100C100001EE020A84ED010AC4ED020AD1469AED02
:100C20000A0AF0EE690A05F0A1F9B0EE40CA04F034
:100C30004BFED9ED090A60EE60CAB0EE4C0A04F032
:100C40007BFFD9ED0B0AD9ED0C9A40EE60CA9FEDFF
:100C50009E0A9E494CEE809A19EE900A884202DD67
:100C60009FED9BBA09E019EE900A9A49884202D991
:100C70009FED99BA01E0B0EE69BA9FED980A8C48F1
:100C8000974A6BEE00BA1830C0ED03BA80ED04CA83
:100C90001068407A08B9F0EE6BFA854999ED161A9A
:100CA000904BD1ED030A4C4630EEC10A10EE100A0B
:100CB000984202DD9FED8C0A06E010EE100A8B4B85
:100CC000984204D99FED8A0A31EE00DA01E0B0EED5
:100CD00060DA84ED16DA10689246407AE0BB94F848
:100CE000720008B1002004E0DAF80000626E40688B
:100CF000801A8146DAF8000030EEEB0A4068606640
:100D000084F8726010EE100A05F06AFC9FED791B02
:100D100053EC112B05F0C4F953EC1A2B05F040FBF2
:100D200002D2634890ED03DA94F86F007DEE6FFA1B
:100D300010B194ED140A1EE094ED000B53EC1A2B45
:100D400051EC100B05F02CFB07D294F96E00002833
:100D500003DCB0EE480A0EE07DE000EE909A94EDE0
:100D6000140AF8EE600A9FED651A60EE810A94EDB0
:100D7000171A00EE810A6249624A91ED011AF0EEFB
:100D8000400A01EE2F0A10EE100A904204DDC4ED75
:100D900005DA30EE6DDA14E010EE100A5A4AB8EEB9
:100DA000081A904202D984ED051A01E084ED050A83
:100DB00010EE100A904202D8B0EE48DA01E030EEB0
:100DC00041DA91ED000A84F86F60C4ED140A60EE18
:100DD0002FDA94ED000B53EC1A2B51EC100B05F0AD
:100DE000DFFA02D284F86E8019E094ED000B53EC28
:100DF0001A2B51EC100B05F043FA02D284F86E5016
:100E00000DE094ED000B53EC1A2B51EC100B05F098
:100E1000FBF902D184F86E6001E084F86E70B5EEE3
:100E2000C0DAF1EE10FA01DD012100E02946F5EE0D
:100E3000C0DAF1EE10FA01DD012000E02846B5EE3F
:100E4000C0DAF1EE10FA04D0814202D184ED178AA3
:100E500001E0C4ED17DAD4ED0D0A1FEDF40A284FB6
:100E60009FED2C1A20EE80DA94ED0E0A283F8DEDCE
:100E70000D0AD7ED000A30EE600ADFED240A60EEBD
:100E8000200A20EE010ACDED060AD4ED09AA8DED67
:100E9000150ADFED1F0A2AEE8D0A6AEEA0DA8DED43
:100EA000100A94ED0F0A8DED0F0A97ED011A33E049
:100EB0002803002000007A46D7B35D3FD7B3DDBFDB
:100EC000D7B35DBF00007A469A1954437C59C44594
:100ED0007C59C4457C59C4C57C59C4C5EBC918406C
:100EE00000680008CDCC0C3FCDCC0C3FCDCC0CBF66
:100EF000CDCC0CBF00000000000034406F12833ADC
:100F00005800002000004040000040C03333B33F91
:100F10001A1F993CCCCCCCBE30EE410A19EE900A97
:100F200083498DED020AD4ED0BFA88422FEEA0AA78
:100F300002DD1FED190A09E019EE900A7D49884289
:100F400002D8F0EE489A03E01FED1D0A79EEC09A30
:100F50009FED790A18EE900ADFF8E0816CEE80CA06
:100F6000404502DD78EEEE8A08E018EE900A58451A
:100F700002D8F0EE488A01E078EECF8A70489DED05
:100F8000130AD0ED000A20EE800A04F045FDBDEE04
:100F9000C00A10EE100A01B219EE100A404502DD37
:100FA00039EE6E0A08E019EE100A584502D8B0EE84
:100FB000480A01E039EE4F0ADFED620A62486EEE40
:100FC000200AC0ED05BA84ED07CADAF800205046C1
:100FD000527A1AB994ED051A84ED151AF5EEC08A05
:100FE000F1EE10FA01DD012200E02A46002901DDC0
:100FF000012300E02B46F5EEC08AF1EE10FA02D094
:101000009A4200D10021B5EEC00AB4F86820F1EE92
:1010100010FA1144A4F8681001DD012100E029460E
:10102000F5EEC00AF1EE10FA01DD012200E02A46D9
:10103000B5EEC00AF1EE10FA03D0914201D1F0EE04
:10104000480A94ED081A9FED410A4FEECDAA00EE32
:10105000801A84ED081ADDED060A7AEEA00AC4EDC6
:10106000090AD4ED0A0A4BEE000AC4ED0A0ADDEDC6
:10107000100A7FEEA01ADDED020A1FED5C1AF5EEF4
:10108000C09A40EE811AF1EE10FAC4ED0B1A01DDA0
:10109000012100E02946F5EEC0CAF1EE10FA00DDAC
:1010A0000125F5EEC09AF1EE10FA03D0A94201D164
:1010B000F0EE48CA94ED0C1A0CEE801A84ED0C1A6E
:1010C00084ED0DBA9DED0D0A9FED211AD7ED021AA0
:1010D00050EE01DA1FED720A41EE80DADDED151AED
:1010E0007DEEA11AC4ED0E1ADDED0F1A11EE81AAE4
:1010F00097ED031A01EE00AA1FED7A0A00EE80AA0E
:1011000084ED0FAA0168497A21B902680368526820
:10111000521C5A60491C0268C9B20929517202D98D
:10112000DAF80000467217B0BDEC108BBDE8F08F06
:101130007C59C4457C59C4C500401C454288474180
:101140005000002000008E424003002017B7D13825
:10115000F2A55E3FF8B500260446009690F85800C8
:101160000D4601280BD0012084F858002046FFF7D7
:101170009BF90100E06D04D040F010002AE002204D
:10118000F8BD20F4885040F00200E06520688268D5
:10119000134B1A4005F080431A4342F0004282602C
:1011A000104A20680EE0009B5B1C0093934209D319
:1011B000E06D20F0020040F01000E06584F8586017
:1011C0000120F8BD8368DB0FEDD1E06D20F0020057
:1011D00040F00100E06584F858600846F8BD000062
:1011E000C0FFFF3F02DE0400704700002DE9F84F0A
:1011F0004FF000090446CDF800900D4694F85820B1
:10120000DFF8EC8361694F464846012A0AD001267F
:10121000F84A84F8586041B1296A012905D0A36EC3
:10122000EBB129E00220BDE8F88F6868092838D1C1
:10123000A96A4FF4785041B12B6801F07C0100EAB3
:1012400053400843E96A084302E0296800EA514034
:101250002368D96C11400143D964606621E0C4E978
:101260001971A96A286A31B101F07C01401E084356
:10127000E96A084300E0401E29682B79C1F38461C4
:1012800003F01F0399400143A06E401EA066636EE9
:1012900043EA0103636604D12168C86C1040184317
:1012A000C864206803F0C3FA58B995F8250098B1CE
:1012B0002068C16895F8262021F4401141EA425186
:1012C000C160206803F0BBFA8246206803F0AFFAE1
:1012D0005AEA00000DD0FCE095F8260095F824109D
:1012E000400540EA01512068C26822F440121143CF
:1012F000E6E7A86A30B1E86A20B195F82500012830
:101300005ED003E095F82500012804D02068C1686C
:1013100021F0007103E02068C16841F00071C160F4
:1013200095F83000012852D02068016921F00201AF
:101330000161AA6829682068B2F1004F38D003F033
:1013400099FA2068416921F000414161206869698A
:10135000C268C2F3C102520091402A69042A45D0F2
:1013600000EB82002B68026EDFF88CC203F0F843BA
:1013700002EA0C020B431A4342F000410166206866
:101380002A69A96900EB8200026E22F080720A438A
:101390000266297F22682869012924D05FF00001B4
:1013A00002EB8000026E22F000720A43026690E0B7
:1013B000002203F05FFA2068416941F00041C4E770
:1013C000E06D40F02000E0654FF00109A8E7D5E9A5
:1013D0000D01084321680A6922F4FF7242F00202FB
:1013E00010430861A5E74FF00071D9E7002103F031
:1013F00014FA400320684FF0000172D003F00DFA98
:1014000090FAA0F0B0FA80F1286842036ED090FA0A
:10141000A0F0B0FA80F0814204D100221146206889
:1014200003F03FFA0121206803F0F7F94003206838
:101430004FF001015DD003F0F0F990FAA0F0B0FA9E
:1014400080F12868420359D090FAA0F0B0FA80F0F9
:10145000814204D100220121206803F022FA0221F6
:10146000206803F0DAF9400320684FF0020148D009
:1014700003F0D3F990FAA0F0B0FA80F128684203A3
:1014800044D090FAA0F0B0FA80F0814204D100225A
:101490000221206803F005FA0321206803F0BDF95A
:1014A000400320684FF0030133D003F0B6F990FAFF
:1014B000A0F0B0FA80F1286842032FD090FAA0F093
:1014C000B0FA80F0814204D100220321206803F0A9
:1014D000E8F92068816811F0010F22D0B5E000E042
:1014E00004E003F09AF9C0F384618DE7C0F38460EF
:1014F00091E703F092F9C0F38461A2E7C0F384603E
:10150000A6E703F08AF9C0F38461B7E7C0F384600B
:10151000BBE703F082F9C0F38461CCE7C0F38460D9
:10152000D0E72A7B296850F8B03FC1F3120C23EAB8
:101530000C0302F0180C314A22FA0CF20A40134351
:101540000360E96841457DD1286841031BD090FACA
:10155000A0F1B1FA81F1491C01F01F0109294FEAFC
:10156000403131D8002911D090FAA0F1B1FA81F1BF
:1015700001F1010101F01F0106FA01F609D100BFD6
:10158000C0F3846109E0C0F38461E4E7C0F38461DF
:10159000EEE790FAA0F1B1FA81F101F1010101F059
:1015A0001F0146EA816102D1C0F3846003E090FA32
:1015B000A0F0B0FA80F000F1010000F01F0000EB95
:1015C000400041EA00513AE000290ED090FAA0F123
:1015D000B1FA81F101F1010101F01F0106FA01F6F2
:1015E0000ED100BFC0F384610EE0C0F38461F1E767
:1015F00000007F400040100400F0FF03FFFF0700E1
:1016000090FAA0F1B1FA81F101F1010101F01F019D
:1016100046EA816102D1C0F3846003E090FAA0F051
:10162000B0FA80F000F1010000F01F003A4A00EB30
:10163000400002EB005041EA000141F00071AA684D
:10164000206800E001E003F015F934482B680342FC
:101650005ED022684FF0A04C3148324E324D624588
:1016600001D0AA4201D1014600E031468968DFF885
:10167000BC8001F0E071434503D0DFF8B4804345FE
:1016800020D15FEA01281DD4624505D0294B9A423A
:101690003ED1AA4200D0304641F40001826822F0D7
:1016A000E0720A438260244824490068B0FBF1F0EC
:1016B000801C00EB4000800000E0401E00900028ED
:1016C000FBD125E0DFF8788043450FD15FEAC118F0
:1016D0000CD4AA4202D11B4B9A4219D0624502D0C7
:1016E000AA4200D0304641F080710CE0DFF858800B
:1016F00043450DD14B020BD4AA4209D0624500D01C
:10170000304641F48001826822F0E0720A43826030
:1017100084F85870484686E5000020FE00000880E6
:10172000000300500007005000010050000021C3DA
:101730001000C0900006005028000020400D03005B
:10174000000052C700050050000084CB2DE9F04195
:10175000484988427ED14848014604784B8A8A8AA3
:1017600044490968ECB351F8804FC4804C68A4B276
:101770000481896889B24181E01A00EE100A881A52
:1017800001EE100AF8EEC00A9FED3C0AB8EEC11A4D
:101790003B4C60EE800A21EE000A84EC020AB1EEB6
:1017A000400A30EE600A84ED020AFEF75DFF35491B
:1017B000354A91ED000ABCEEC00A10EE100A106026
:1017C00091ED010A121DBCEEC00A10EE100A106065
:1017D00091ED020A121DBCEEC00A10EE100A106054
:1017E00000E020E0294894ED050A80ED000A91ED23
:1017F000040A80ED010A91ED030A80ED020A94EDDE
:10180000030A80ED030A94ED000A80ED040A94EDCA
:10181000010A80ED050A94ED020A80ED060ABDE892
:10182000F04103F071BA8478641CE6B2867051F816
:10183000805FC5804C68048189684181078A2344A0
:101840003D44ADB205829BB2114443828AB282828A
:101850000A2E00E00CE00BD3012101700A21B5FB38
:10186000F1F4B3FBF1F3B2FBF1F104824382818224
:10187000BDE8F08198000020000000206F12033CBA
:101880002803002040030020342C01407800002071
:10189000704700002DE9F041044600684FF0A04574
:1018A0003E4FA84201D0B84201D13D4900E03D4938
:1018B000896801F01F0602F0BAFF08BB2068C16802
:1018C000C06C01F0004100F4C070084312D094F8DD
:1018D0005800012814D0012084F858002046FEF753
:1018E0001BFE01004FF000020CD084F8582008467F
:1018F000BDE8F081E06D40F02000E0650120F7E7F1
:101900000220F5E7E06DC00504D5206E20F0080048
:10191000206600E02266E06D42F20103984340F445
:101920008050E0652068204BDFF880C0B84201D1CC
:10193000AE4604E0984201D1E64600E08646864580
:1019400000D02EB9D4F85CE02EF4801EC4F85CE020
:101950004FF0600EC0F800E084F858202068B842CC
:1019600004D0984201D1654600E00546854209D081
:1019700046B1062E06D0072E04D0E06D40F480104C
:10198000E065B4E7C26812F0007FB0D18268084B0E
:101990001A4042F008028260A9E7000000010050EE
:1019A00000030050000700500005005000040050E4
:1019B000C0FFFF7F2DE9F041044600684FF0A045CD
:1019C0004C4FA84201D0B84201D14B4900E04B49ED
:1019D000896801F01F0602F02AFF08BB2068C16871
:1019E000C06C01F0004100F4C070084312D094F8BC
:1019F0005800012814D0012084F858002046FEF732
:101A00008BFD01004FF000020CD084F858200846EE
:101A1000BDE8F081E06D40F02000E0650120F7E7CF
:101A20000220F5E7E06DC00504D5206E20F0080027
:101A3000206600E02266E06D42F20103984340F424
:101A40008050E06520682E4BDFF8B8C0B84201D165
:101A5000AE4604E0984201D1E64600E0864686455F
:101A600000D02EB9D4F85CE02EF4801EC4F85CE0FF
:101A70004FF0600EC0F800E084F858202068C2687B
:101A8000920203D5426842F480624260A06908284D
:101A90002068426807D022F0400242602068426815
:101AA00042F0200206E022F02002426020684268F4
:101AB00042F0400242602068B84204D0984201D10E
:101AC000654600E00546854209D046B1062E06D09F
:101AD000072E04D0E06D40F48010E06597E7C268FF
:101AE00012F0007F93D18268074B1A4042F008023F
:101AF00082608CE700010050000300500007005096
:101B00000005005000040050C0FFFF7F7047704781
:101B10002DE9F04F044690F858009BB00F464FF067
:101B2000000B012812D0012084F8580000261796D7
:101B3000189620684FF0A048DFF81891DFF818A138
:101B4000464D404506D12846009508E002201BB0CE
:101B5000BDE8F08F484515D15046CDF800A002F001
:101B60006EFE0090206802F06AFE0099084311D0D2
:101B7000E06D40F02000E0654FF0010B84F8586004
:101B80005846E4E7E06D40F02000E06584F85860D6
:101B90000120DCE720684146884201D0A84201D1FB
:101BA0002F4800E02F48D7F800C02F4B40F61F7297
:101BB000BCF1000F2DD0D0F808C094F838802CF478
:101BC000604C4CEA483CD7F804804CEA080CC0F85A
:101BD00008C0D4F800C08C4501D0AC4504D1896858
:101BE000AB6801F0010109E0D9F80810DAF80850F3
:101BF00001F0010105F001059B68294303F0010391
:101C00001943BBD1BB6839681943836893431943AF
:101C10001DE0876827F46047876027688F4201D0FE
:101C2000AF4204D18968AB6801F0010109E0D9F83D
:101C30000810DAF8085001F0010105F001059B6871
:101C4000294303F00103194398D1816891438160CE
:101C500094E700000004005000050050000100500F
:101C60000003005000070050000600502DE9F84F17
:101C700000270446009790F85800DFF81C840D46B2
:101C8000B946012811D0012684F85860206802F076
:101C9000D2FD60B1E06D40F02000E0655FF001072B
:101CA00084F858903846BDE8F88F0220FBE7D5E964
:101CB00000210C23206803EA91131844036B01F000
:101CC0001F014FF01F0C0CFA01FCC2F3846223EADF
:101CD0000C038A4013430363206802F0ACFD824684
:101CE000206802F0A0FD5AEA00003CD1AA682968E9
:101CF0002068B2F1004F37D002F0ADFD2068416995
:101D000021F00041416120686969C268C2F3C102E3
:101D1000520091402A69042A31D000EB82002B68DE
:101D2000026EDFF878C303F0F84302EA0C020B43BB
:101D30001A4342F00041016622682869A96902EB52
:101D40008000026E22F080720A430266297F2268B8
:101D50002869012910D0002102EB8000026E22F0D8
:101D600000720A4302667DE0002202F074FD2068E2
:101D7000416941F00041C5E74FF00071ECE70021F7
:101D800002F045FD400320684FF0000172D002F0E0
:101D90003EFD90FAA0F0B0FA80F1286842036ED0C0
:101DA00090FAA0F0B0FA80F0814204D100221146EE
:101DB000206802F06EFD0121206802F028FD40033A
:101DC00020684FF001015DD002F021FD90FAA0F0F3
:101DD000B0FA80F12868420359D090FAA0F0B0FA26
:101DE00080F0814204D100220121206802F051FDDF
:101DF0000221206802F00BFD400320684FF0020131
:101E000048D002F004FD90FAA0F0B0FA80F1286802
:101E1000420344D090FAA0F0B0FA80F0814204D19D
:101E200000220221206802F034FD0321206802F024
:101E3000EEFC400320684FF0030133D002F0E7FCD2
:101E400090FAA0F0B0FA80F1286842032FD090FAFF
:101E5000A0F0B0FA80F0814204D100220321206872
:101E600002F017FD2068816811F0010F22D0ACE06C
:101E700000E004E002F0CBFCC0F384618DE7C0F326
:101E8000846091E702F0C3FCC0F38461A2E7C0F371
:101E90008460A6E702F0BBFCC0F38461B7E7C0F33F
:101EA0008460BBE702F0B3FCC0F38461CCE7C0F30D
:101EB0008460D0E72A7B296850F8B03FC1F3120C48
:101EC00023EA0C0302F0180C754A22FA0CF20A40BD
:101ED00013430360E968414577D1286841031CD06A
:101EE00090FAA0F1B1FA81F1491C01F01F01092912
:101EF0004FEA403132D8002912D000BF90FAA0F149
:101F0000B1FA81F101F1010101F01F0106FA01F6B8
:101F100009D100BFC0F3846109E0C0F38461E3E745
:101F2000C0F38461EEE790FAA0F1B1FA81F101F11A
:101F3000010101F01F0146EA816102D1C0F3846012
:101F400003E090FAA0F0B0FA80F000F1010000F098
:101F50001F0000EB400041EA005132E000290ED0A2
:101F600090FAA0F1B1FA81F101F1010101F01F0134
:101F700006FA01F606D100BFC0F3846106E0C0F3A3
:101F80008461F1E790FAA0F1B1FA81F101F1010168
:101F900001F01F0146EA816102D1C0F3846003E0D1
:101FA00090FAA0F0B0FA80F000F1010000F01F00FC
:101FB0003C4A00EB400002EB005041EA000141F0D6
:101FC0000071AA68206802F046FC37482B6803427B
:101FD0003FF466AE21684FF0A04C3448344E354D86
:101FE000614501D0A94201D1024600E03246926823
:101FF000DFF8C48002F0E072434503D0DFF8BC8014
:10200000434521D15FEA02281ED4614506D02C4BFE
:1020100099427FF445AEA94200D0304642F4000117
:10202000826822F0E0720A438260264826490068EE
:10203000B0FBF1F0401C00EB4000800000E0401ECF
:1020400000900028FBD12BE6DFF8808043450FD1BC
:102050005FEAC2180CD4A94202D11D4B9942F2D0BA
:10206000614502D0A94200D0304642F080710CE0B8
:10207000DFF860804345E6D15302E4D4A942E2D0C0
:10208000614500D0304642F48001826822F0E0725F
:102090000A43826004E6000000007F4000F0FF0376
:1020A000FFFF0700000020FE000008800003005032
:1020B0000007005000010050000021C31000C09034
:1020C0000006005028000020400D0300000052C709
:1020D00000050050000084CB704770472DE9F84F91
:1020E00004460068066845684FF0A048DFF8909203
:1020F000404501D0484501D1A24800E0A24880688F
:1021000000F01F07B0070ED5A8070CD5E06DC0067C
:1021100003D4E06D40F40060E0652046FFF764F80A
:10212000216802200860DFF864B2DFF864A270075B
:1021300001D5680703D430073FD528073DD5E06DAA
:10214000C00603D4E06D40F40070E065206802F042
:102150007AFB60B32068484501D1424604E0584507
:1021600001D1524600E00246824208D03FB1052F1D
:1021700005D0092F03D0484503D1414606E0C16888
:1021800005E0584501D1514600E00146C96889047F
:102190000DD4016809070AD502F04DFB58B3E06D74
:1021A00040F01000E065206E40F0010020662046FF
:1021B000FFF792FF21680C200860B00601D5A80641
:1021C00003D470065FD568065DD5E06DC00603D404
:1021D000E06D40F40050E0652068C16C11F4C07FF0
:1021E0001AD00021009102F02EFB024620684845DB
:1021F00014D1434617E02068416821F00C0141608A
:10220000E06D20F48070E065E06DC004CFD4E06D37
:1022100040F00100E065CAE70121E3E7584501D13C
:10222000534600E00346834208D03FB1062F05D055
:10223000072F03D0484503D1414606E0C16805E0B9
:10224000584501D1514600E00146C968009BA3B141
:102250008B0102D58AB18A040FD4026852060CD5CC
:1022600089020AD402F0DFFAF0B3E06D40F010000A
:10227000E065206E40F0010020662046FFF766FA18
:1022800021686020086030060BD5280609D5E06D6E
:1022900040F48030E065204600F098F92168802005
:1022A0000860F0050CD5E8050AD5E06D40F4003073
:1022B000E0652046FFF72AFC21684FF48070086033
:1022C000B0050CD5A8050AD5E06D40F48020E06586
:1022D0002046FFF71CFC21684FF400700860F006F0
:1022E00031D5E8062FD500E009E0E06BE8B12068C1
:1022F000EFB3404501D0484512D1224811E0206893
:10230000416821F060014160E06D20F48050E0659B
:10231000E06DC005B1D4E06D40F00100E065ACE7D0
:102320001948806800F4604050B1E06D40F480606E
:10233000E065206E40F0020020662046FFF7CDFEEB
:10234000216810200860700517D5680515D5E06D67
:1023500040F48040E065206E40F00800206621686F
:102360004FF4806008602046BDE8F84F00E001E0CF
:10237000FFF78EBAC068C007D6E7BDE8F88F000047
:1023800000010050000300500007005000050050FD
:1023900000040050F8B54FF0000504002E460095EB
:1023A00002D0E06D10B107E00120F8BD204600F03A
:1023B0000FF9266684F8586020688168C1F340717F
:1023C00019B18168754A1140816020688168C1F344
:1023D000007189B98168724A114041F08051816071
:1023E000704871490068B0FBF1F04000801C00E0CB
:1023F000401E00900028FBD120688168C1F3007165
:1024000041B9E16D41F01001E165216E41F001013A
:102410002166012502F00FFAE16D01F01001014380
:10242000E06D05D040F01000E06501252846F8BDBC
:1024300020F4807040F00200E0652068816811F0AF
:10244000010F27D14FF0A043584A984201D0904243
:1024500004D19968966801F001010AE0544989683D
:10246000544E01F00101B66806F001063143524EA8
:10247000B66806F0010631430CD1984201D0904273
:1024800001D14E4800E04E486168826822F47C1217
:102490000A438260E168E06B627F0843A16841EA19
:1024A0004231084394F8241040EA0140012904D144
:1024B000218D444A02EB41410843E16A29B101F40C
:1024C0007871226B014342EA01002168CA683E4BE1
:1024D0001A400243CA6020680169626B21F04061C2
:1024E00011430161206802F0A6F90646206802F057
:1024F0009AF930432ED1207F94F838102268800357
:1025000040EA4101D06844F2020398430843D06096
:1025100020690028206801690AD041F480310161F6
:10252000206850F8C01F22696FF30D01114307E0C6
:1025300021F480310161206850F8C01F6FF30D0154
:10254000016094F8400001280CD02068016921F056
:1025500001010161606901282068016B21F00F0110
:1025600011D013E0D4E911010843D4E91312114347
:10257000084321680A6940F2FC739A43104340F013
:1025800001000861E6E7226A521E11430163E06D13
:1025900020F0020040F00100E06547E7C0FFFF5F68
:1025A000C0FFFF7F28000020400D03000001005005
:1025B00000040050000500500006005000030050C9
:1025C000000700500000FEFF0740F0FF70470000CA
:1025D00070B586B0044614216846FDF7E4FE274A2C
:1025E00025680023116803242548491CB5F1A04F34
:1025F00006D0244EB5423ED1116001291BD022E005
:102600001160012907D1C16C41F40051C164C16C52
:1026100001F400510591C16C41F00101C164C06C2D
:10262000694600F0010005900F20CDE900040293F7
:102630004FF0904015E0C16C41F40051C164C16C91
:1026400001F400510591C16C41F00401C164C06CFA
:10265000694600F0040005903020CDE900040293A3
:10266000094800F00DFA00221146122000F060FB2C
:10267000122000F04FFB06B070BD000018000020D3
:1026800000100240000100500008004810B590F80A
:10269000253000210122022B03D00421C163012136
:1026A00022E003681C6824F00E041C60836C1C6824
:1026B00024F480741C6003681C6824F001041C600E
:1026C00090F84430046C03F01F0302FA03F36360D4
:1026D000D0E913345C60436D33B11C6824F480741A
:1026E0001C60D0E916345C6080F82520002280F858
:1026F0002420084610BD70B590F825200024012143
:102700002346022A07D00422C26380F8251080F8ED
:102710002430012429E00268156825F00E051560B3
:102720000268156825F001051560826C156825F4AE
:102730008075156090F84420056C02F01F0201FAC4
:1027400002F26A60D0E913255560426D32B1156816
:1027500025F480751560D0E91625556080F82510A0
:1027600080F82430816B01B18847204670BDF0B4F9
:10277000016C0C6801680D6890F8442002F01F0697
:10278000042202FA06F3234211D06B070FD50B681F
:102790009B0603D40B6823F004030B6090F84410ED
:1027A00001F01F018A40016C4A60016B1DE00223A9
:1027B00003FA06F727424FF0000C4FF0010218D041
:1027C000AF0716D50C68A40605D40C6824F00A04DB
:1027D0000C6080F8252090F8441001F01F018B4018
:1027E000016C4B6080F824C0C16A00291AD0F0BC8B
:1027F00008470823B340234214D02B0712D50B6897
:1028000023F00E030B6090F84410036C01F01F01DD
:1028100002FA01F15960C26380F8252080F824C0D3
:10282000416BE2E7F0BC704770B504000CD02B4A56
:1028300021681420914209D2294A0A44B2FBF0F0DF
:102840008000606427480AE0012070BD234A52429C
:102850000A44B2FBF0F0800060642048083820642D
:10286000022084F825000A6847F6F0708243D4E914
:1028700002031843D4E904352B431843A3691843D2
:10288000E3691843236A1843104308602046FDF7A4
:1028900085FEA0680025B0F5804F00D16560A16C71
:1028A00020790860D4E9130141606068401E032864
:1028B00008D82046FDF792FE606D0560D4E9160148
:1028C000416002E06565A565E565E563012084F882
:1028D000250084F82450002070BD00000804024048
:1028E000F8FFFDBF0000024070B5044690F82400D8
:1028F000002501280CD0012084F8240094F82560DC
:102900000020012E06D084F824000225284670BD40
:10291000022070BD022684F82560E0632068066806
:1029200026F0010606602046FDF76AFE206B0028AF
:102930002068016802D041F00E0106E021F0040198
:1029400001602068016841F00A010160A06C016823
:10295000C90303D5016841F480710160606D18B14D
:10296000016841F4807101602068016841F0010153
:102970000160CBE770B5044600F074F90546601CB1
:1029800002D004484068044400F06CF9401BA042A7
:10299000FAD370BD1C00002010B500214FF4805305
:1029A0000A46491C9A42FBD32A4AB0F5007F2BD035
:1029B00080284ED1284C4FF480416078C04360702D
:1029C000104600F041F96178244821B3B7EE000ABF
:1029D00080ED040A0021224801F0A6FB04212048D2
:1029E00001F0A2FB08211E4801F09EFB00211C48BB
:1029F00000F0E2FF04211A4800F0DEFFBDE81040BD
:102A00000821174800F0D8BFBDE810404FF400512E
:102A1000104600F019B99FED130A002180ED040A59
:102A20000F4801F00BFC04210D4801F007FC0821C0
:102A30000B4801F003FC0021094801F023F80421B0
:102A4000074801F01FF8BDE810400821044801F0D4
:102A500019B810BD0008004800000020280300201D
:102A60007001002000000000044910B50A6802420D
:102A700002D00860FFF790FF10BD00001404014071
:102A80002DE9FC4FDFF8A0A1002301250AF1040B7A
:102A900003244FF00F0C0BF1040EBDE005FA03F612
:102AA00032406FD04F68012F05D0022F03D0112F75
:102AB00001D0122F17D1D0F808905F0004FA07F860
:102AC00029EA08090097D1F80C8008FA07F848EAC3
:102AD0000908C0F808804768B7430E79C6F30016A6
:102AE0009E403E434660C6684FEA430804FA08F732
:102AF000BE4301978F6807FA08F73743C7604E68EF
:102B0000022E01D0122E13D1DE0800EB86060096AD
:102B1000366A5F07FF0E0CFA07F926EA0906D1F8B4
:102B2000109009FA07F949EA0609009EC6F82090B4
:102B30000668019FBE430F7907F0030707FA08F7FD
:102B4000374307604E68F60065D5384E376E47F05C
:102B500001073766366E23F0030706F0010600967C
:102B6000334E3E44B146B6689F074FEA17780CFAD9
:102B700008F7BE43B0F1904F05D02E4FB84204D1B4
:102B8000012717E047E0002714E02B4FB84201D19E
:102B900002270FE0294FB84201D103270AE0284F4E
:102BA000B84201D1042705E0264FB84201D10527DC
:102BB00000E0062707FA08F73743C9F80870DAF883
:102BC00000605746D1F8048096435FEAC83800D5C4
:102BD00016433E60DBF800605F46D1F80480964300
:102BE0005FEA883800D516433E60DEF8006077461D
:102BF000D1F8048096435FEAC82800D516433E60AA
:102C0000094F0C373E68D1F8048096435FEA882864
:102C100000D516433E605B1C0A6832FA03F67FF467
:102C20003DAFBDE8FC8F00000004014000100240F1
:102C3000000001400004004800080048000C004863
:102C40000010004800140048426921EA02030A40CB
:102C500043EA0241816170470AB181617047816234
:102C60007047000001488068704700001C00002089
:102C70000248816842681144816070471C0000204E
:102C800010B50024032000F073F80F2000F008F8BE
:102C900008B1012401E000F025F8204610BD000035
:102CA00070B50E4E05460024706898B14FF47A71E5
:102CB000B1FBF0F00A490968B1FBF0F000F09EFDAD
:102CC00040B9102D06D200222946501E00F030F8DF
:102CD000356000E00124204670BD00001C0000208B
:102CE000280000200A4882B0016E41F0010101660F
:102CF000016E01F001010091816D41F0805181650B
:102D0000806D00F08050009002B000F0A1B800008B
:102D100000100240002809DB00F01F020121914051
:102D20004009800000F1E020C0F800117047000069
:102D3000F0B40E4B1B680C46C3F30223C3F1070526
:102D4000042D00D90425191D072901D2002300E014
:102D5000DB1E012606FA05F1491E214099409E40DE
:102D6000761E16403143F0BC02F09EBD0CED00E033
:102D7000064900F0070208684FF6FF03184040EAD2
:102D80000220034A10430860704700000CED00E089
:102D90000000FA052B492C4B0A6832214A432B4983
:102DA00040B1B0F5007F086829D020F4C06040F43D
:102DB00080602CE00868C0F34120022804D051F85C
:102DC000800F20F4807022E0D1F8800020F4807021
:102DD000C1F88000086820F4C06040F4007008600A
:102DE000B2FBF3F0401C00E0401E4A69520501D5D9
:102DF0000028F9D1486940050AD503207047C0F37F
:102E00004120022806D051F8800F40F480700860FD
:102E100000207047D1F8800040F48070C1F8800035
:102E2000086820F4C06040F400700860B2FBF3F062
:102E3000401C00E0401E4A695205DBD50028F9D14C
:102E4000D8E700002800002040420F00007000403A
:102E50000248816841F48041816070470070004001
:102E60002DE9F843044600680026BB4D00035ED5FB
:102E7000A86D0027C00008D4A86D40F08050A86558
:102E8000A86D012700F080500090DFF8D092D9F8AB
:102E9000001041F48071C9F80010FFF7E3FE80468E
:102EA00006E000BFFFF7DEFEA0EB080002282BD8EB
:102EB000D9F80000C005F5D5D5F8900010F44070A1
:102EC00014D0216D814211D0D5F89000D5F8901022
:102ED00020F4407041F48031C5F89010D5F890107E
:102EE00021F48031C5F89010C5F89000C00711D0CA
:102EF000FFF7B8FE804641F2883907E0FFF7B2FEDF
:102F0000A0EB0801494501D903260BE0D5F8900054
:102F10008007F3D5D5F89000216D20F44070084368
:102F2000C5F890001FB1A86D20F08050A8652078EA
:102F3000C00707D0D5F88800616820F00300084377
:102F4000C5F888002078800707D5D5F88800A168E3
:102F500020F00C000843C5F888002078400707D50A
:102F6000D5F88800E16820F030000843C5F88800F3
:102F70002078000707D5D5F88800216920F0C00027
:102F80000843C5F888002078C00607D5D5F8880022
:102F9000616920F440700843C5F8880020788006F5
:102FA00007D5D5F88800A16920F440600843C5F82A
:102FB00088002078400607D5D5F88800E16920F41C
:102FC00040500843C5F888002078000607D5D5F89A
:102FD0008800216A20F440400843C5F88800208812
:102FE000C00507D5D5F88800616A20F44030084351
:102FF000C5F888002068800307D5D5F89C00A16A31
:1030000020F003000843C5F89C002088800507D500
:10301000D5F88800E16A20F440200843C5F888000C
:10302000208840050FD5D5F88800216B20F440108A
:103030000843C5F88800206BB0F5801F03D1E8680D
:1030400040F48010E860208800050FD5D5F888008E
:10305000616B20F440000843C5F88800606BB0F550
:10306000800F03D1E86840F48010E8602088C00435
:103070000FD5D5F88800A16B20F040700843C5F843
:103080008800A06BB0F1807F03D1E86840F4801025
:10309000E86020884FF0006180040ED5D5F88800E4
:1030A000E26B20F040601043C5F88800E06B884276
:1030B00003D1E86840F48010E860208840040ED511
:1030C000D5F88800226C20F040601043C5F88800D5
:1030D000206C884203D1E86840F48010E8602088C2
:1030E00000040FD5D5F88800616C20F040500843EB
:1030F000C5F88800606CB0F1805F03D1E86840F4E7
:103100008030E8602068C0030FD5D5F88800A16C36
:1031100020F040400843C5F88800A06CB0F1804F13
:1031200003D1E86840F48030E860206840030FD5A0
:10313000D5F89C00E16C20F440100843C5F89C00D1
:10314000E06CB0F5001F03D1E86840F48010E8603F
:103150003046BDE8F88300000010024000700040D7
:103160002DE9F0470E4605004FF0000725D0DFF8A7
:10317000AC81D8F8000000F00F00B0420CD2D8F8B3
:10318000001021F00F013143C8F80010D8F80000FA
:1031900000F00F00B04210D12968614CC80741F21D
:1031A000883A5AD06868DFF87C91032808D0022852
:1031B00020682DD0400500282CDB0120BDE8F087D9
:1031C00020688001F9D5E06800F00302E068C0F3F0
:1031D0000310401C032A19D0534A00BFB2FBF0F081
:1031E000E268C2F306225043E268C2F34162521C15
:1031F0005200B0FBF2F0484517D9A06810F0F00F6C
:103200000CD0880711D5A86840B10EE0474AE5E721
:103210008003D0E700F0B6F8484506D9A06820F052
:10322000F00040F08000A0608027A068696820F06E
:1032300003000843A060FFF715FD814606E000BFCC
:10324000FFF710FDA0EB090151453AD8A068696865
:1032500000F00C00B0EB810FF2D12868810714D583
:10326000400703D5A06840F4E060A060287800071C
:1032700005D5A06820F4605040F4E060A060A0682C
:10328000A96820F0F000084304E0802F03D1A06873
:1032900020F0F000A060D8F80010404601F00F01C7
:1032A000B14216D9016821F00F0131430160FFF7E7
:1032B000D9FC074607E000BFFFF7D4FCC11B51450E
:1032C00001D903207AE7D8F8000000F00F00B042DF
:1032D000F2D12878400705D5A068E96820F4E060BD
:1032E0000843A0602878000706D5A068296920F463
:1032F000605040EAC100A06000F044F8A1680C4AA8
:10330000C1F30311515C01F01F01C8400949086075
:1033100009480068BDE8F047FFF7C2BC0020024042
:103320000010024000B4C4040024F40000127A002B
:10333000E8670008280000201C0000200548064916
:1033400000688968054AC1F30221515C01F01F0140
:10335000C84070472800002000100240F8670008AD
:103360000548064900688968054AC1F3C221515CD5
:1033700001F01F01C84070472800002000100240E3
:10338000F8670008184910B58868C0F3810217482B
:10339000012A0BD08A684310C2F38102022A06D0A8
:1033A0008A68C2F38102032A03D0002010BD1846A8
:1033B00010BDCA6802F00304CA68C2F30312521CAB
:1033C000032C02D0B0FBF2F001E0B3FBF2F0CA68CC
:1033D000C968C2F306225043C1F34161491C490048
:1033E000B0FBF1F010BD0000001002400024F4001A
:1033F0002DE9F84304007AD02078FA4DC00747D071
:10340000A868E96800F00C0001F003010C2802D064
:10341000082817D001E0032914D06068B0F5803F78
:1034200017D0B0F5A02F286817D020F4803028607E
:10343000286820F4802028606068E0B1FFF712FC63
:10344000064614E02868800322D560680028D2D0A0
:103450001EE0286840F48030EDE740F480202860CA
:10346000F7E700BFFFF7FEFB801B642870D82868D1
:103470008003F7D50CE0FFF7F5FB064605E000BF3B
:10348000FFF7F0FB801B6428F0D828688003F7D48E
:10349000207880074CD5A868E96800F00C0001F09E
:1034A00003010C2802D004280DD001E002290AD023
:1034B000E068002828682BD040F480702860FFF76F
:1034C000D1FB064619E02868400502D5E0680028CF
:1034D00091D06868217C20F0FE4040EA016068607D
:1034E000C1480068FFF7DCFB002800D120E076E14E
:1034F000FFF7B8FB801B0228B8D828684005F7D52D
:103500006868217C20F0FE4040EA016068600FE0BE
:1035100020F480702860FFF7A5FB064605E000BF99
:10352000FFF7A0FB801B0228A0D828684005F7D42D
:103530002078000729D560690028D5F8940013D0B9
:1035400040F00100C5F89400FFF78CFB064606E04A
:1035500090E000BFFFF786FB801B022886D8D5F8D5
:1035600094008007F6D510E020F00100C5F8940023
:10357000FFF778FB064604E0FFF774FB801B022888
:1035800078D8D5F894008007F6D42078400761D524
:10359000A86D0026C00008D4A86D40F08050A86532
:1035A000A86D012600F08050009090480168C90580
:1035B00011D40168804641F480710160FFF752FB2D
:1035C000074604E0FFF74EFBC01B022852D8D8F88C
:1035D0000000C005F6D5A068012815D00528D5F84B
:1035E000900016D020F00100C5F89000D5F89000AA
:1035F00020F00400C5F89000A06841F28838B8B106
:10360000FFF730FB07460EE0D5F8900040F00100D0
:10361000F0E740F00400C5F89000F5E7FFF722FB63
:10362000C11B414526D8D5F890008007F6D50CE09F
:10363000FFF718FB074604E0FFF714FBC11B4145E9
:1036400018D8D5F890008007F6D41EB1A86D20F0E8
:103650008050A8652078800629D5A0690028D5F873
:10366000980013D040F00100C5F89800FFF7FAFA6F
:10367000064606E077E000BFFFF7F4FA801B022859
:1036800077D8D5F898008007F6D510E020F0010033
:10369000C5F89800FFF7E6FA064604E0FFF7E2FAFD
:1036A000801B022865D8D5F898008007F6D4E06919
:1036B000F0B3A968C1F38101032961D00228286809
:1036C00020F0807028600BD0E86820F00300E860EC
:1036D000E86847490840E860FFF7C4FA04464BE051
:1036E000FFF7C0FA064604E0FFF7BCFA801B022889
:1036F0003FD828688001F7D4F4E908016FF00F0281
:1037000002EB01110843218A5204490802EB41519E
:10371000A26841EA02210843217D4FF07E42490818
:1037200002EB41610843217B40EAC160E96800E0A7
:1037300062E0304A11400843E860286840F0807039
:103740002860E86840F08070E860FFF78BFA044674
:1037500005E000BFFFF786FA001B022809D8286899
:103760008001F7D548E004E0FFF77CFA001B02284F
:1037700002D90320BDE8F88328688001F4D43BE037
:103780000128F7D0E868226A00F00301914226D1AF
:10379000616A00F0F0020901103991421FD1A26A5A
:1037A00000F4FE41B1EB022F19D194F82C2000F067
:1037B0007841B1EBC26F12D1218E00F4C0024908EA
:1037C0004905A1F50011914209D194F8341000F097
:1037D000C06049084906A1F1007181420CD0012066
:1037E000C8E70000001002401C00002000700040EC
:1037F000FFFFEEFE0C809F010020BBE710B5401ECE
:10380000B0F1807F01D3012010BD4FF0E024606152
:103810000F21601702F048F80020A0610720206106
:10382000002010BD7047704770470000F0B590F859
:103830003C20012A58D0012280F83C20CA688B68BD
:1038400022F440721A434B6822F480621A430B68D8
:1038500022F400621A430B6922F480521A434B6926
:1038600022F400521A430B6B22F480421A430B8B52
:1038700022F4702242EA03421C4C036800271C4DCC
:103880001C4EA34203D0AB4201D0B34205D1D1F8C4
:103890001CC022F0805242EA0C02A34203D0AB4289
:1038A00001D0B3421BD1B1F828C022F4700242EA21
:1038B0000C52D1F820C022F0807242EA0C02D1F8FA
:1038C00024C022F0007242EA0C02A34203D0AB42B1
:1038D00001D0B34203D1C96A22F000520A435A64AC
:1038E00080F83C700020F0BD0220F0BD002C0140AB
:1038F000003401400050014070477047704700009D
:10390000F0B590F83C20012A43D0012580F83C50C6
:10391000022280F83D2003685A689C681E4E1F4FA3
:10392000DFF87CC0B34203D0BB4201D0634504D171
:1039300022F4700E4A6842EA0E02DFF868E002EAFA
:103940000E02D1F800E04EEA020EC3F804E002686D
:10395000B24212D0B2F1804F0FD0134B9A420CD02A
:10396000124B9A4209D0124B9A4206D0BA4204D066
:10397000104B9A4201D0624504D1896824F080033B
:103980001943916080F83D50002180F83C100846B2
:10399000F0BD0220F0BD0000002C014000340140C9
:1039A000005001408FFFFFFD000400400008004070
:1039B000000C00400040014010B50446022249B10D
:1039C00004290ED0082913D094F84700012816D0F6
:1039D000012010BD94F844000128F9D184F8442056
:1039E0000FE094F845000128F2D184F8452008E062
:1039F00094F846000128EBD184F8462001E084F8D1
:103A000047200422206801F060FA2068416C41F4EC
:103A10000041416413492068884214D0B0F1804FBE
:103A200011D0114988420ED0104988420BD010495C
:103A3000884208D00F49884205D00F49884202D0F9
:103A40000E49884207D181680D4A1140062906D0E7
:103A5000B1F5803F03D0016841F001010160002011
:103A600010BD0000002C0140000400400008004090
:103A7000000C004000340140004001400050014073
:103A80000700010070B504460D460068002201F0F1
:103A90001CFA2068036A41F211110B4244F24442BD
:103AA00006D1036A134203D1436C23F400434364F9
:103AB0002068036A0B4206D1016A114203D10168F2
:103AC00021F00101016001203DB1042D08D0082D35
:103AD00009D084F84700002070BD84F84400FAE75C
:103AE00084F84500F7E784F84600F4E7704710B51E
:103AF000040003D094F83D0010B107E0012010BD90
:103B0000002084F83C00204600F022F8022084F8CF
:103B10003D00211D206801F061F9012084F8480072
:103B200084F83E0084F83F0084F8400084F84100A7
:103B300084F8420084F8430084F8440084F8450087
:103B400084F8460084F8470084F83D00002010BD4A
:103B500008B500681349884222D11348016E41F428
:103B600000610166006E002200F4006000901146C2
:103B70001820FFF7DDF81820FFF7CCF800221146D7
:103B80001920FFF7D5F81920FFF7C4F800221146D5
:103B90001B20FFF7CDF8BDE808401B20FFF7BAB89F
:103BA00008BD0000002C01400010024090F83D10BC
:103BB000012901D001207047022180F83D100068E2
:103BC0001249884214D0B0F1804F11D01049884278
:103BD0000ED0104988420BD00F49884208D00F49B7
:103BE000884205D00E49884202D00E49884207D14A
:103BF00081680D4A1140062906D0B1F5803F03D0F7
:103C0000016841F00101016000207047002C014073
:103C10000004004000080040000C00400034014057
:103C200000400140005001400700010070B504460B
:103C300090F83C0001281CD0012584F83C5002205B
:103C400084F83D00226890682F4B184020F47F4094
:103C500090600868B0F5005F2BD013DC40284BD093
:103C600009DCB8B1102815D0202813D030283DD158
:103C700010E0022070BD502827D060282DD0702879
:103C800034D10BE010F00F0F30D10111A1F58031CC
:103C900007292BD822680146104625E0CB68D1E9D8
:103CA0000121206801F01EF92068816841F0770148
:103CB00009E0CB68D1E90121206801F013F92068FF
:103CC000816841F48041816010E0CA6849682068D9
:103CD00001F0DCFA5021206806E0CA6849682068D3
:103CE00001F0E5FA6021206801F006F984F83D5002
:103CF000002084F83C0070BDCA684968206801F063
:103D0000C5FA40212068EFE788FFCEFF704770B505
:103D10000446006801694FF00005C943890715D4BE
:103D2000C168C943890711D4E91E016101202077C8
:103D3000206880698007204602D0FFF7E7FF04E093
:103D400000F02EF9204600F0EDF925772068016992
:103D5000C943490717D4C168C943490713D46FF051
:103D600004010161022020772068806910F4407FFF
:103D7000204602D0FFF7CAFF04E000F011F9204608
:103D800000F0D0F9257720680169C943090716D4E6
:103D9000C168C943090712D46FF00801016104200A
:103DA00020772068C0698007204602D0FFF7AEFF69
:103DB00004E000F0F5F8204600F0B4F9257720681B
:103DC0000169C943C90617D4C168C943C90613D4D8
:103DD0006FF010010161082020772068C06910F49D
:103DE000407F204602D0FFF791FF04E000F0D8F8B2
:103DF000204600F097F9257720680169C943C90773
:103E000008D1C168C943C90704D1891E0161204690
:103E100000F070FA20680169C943090609D4C16835
:103E2000C943090605D46FF0800101612046FFF700
:103E3000FAFC20680169C943C90509D4C168C943AE
:103E4000090605D46FF4807101612046FFF7EAFC92
:103E500020680169C943490609D4C168C9434906B4
:103E600005D46FF040010161204600F044FA20685B
:103E70000169C943890609D4C168C943890605D4C3
:103E80006FF0200101612046FFF7CEFC2068016938
:103E9000C943C90209D4C168C943C90205D46FF432
:103EA000801101612046FFF728FD20680169C943A0
:103EB000890209D4C168C943890205D46FF400118D
:103EC00001612046FFF718FD20680169C9434902D6
:103ED00009D4C168C943490205D46FF48001016166
:103EE0002046FFF70BFD20680169C94309020BD486
:103EF000C168C943090207D46FF40001016120467B
:103F0000BDE87040FFF7F2BD70BD0000F0B587B0AE
:103F1000044614216846FCF746FA1E492068884288
:103F200036D11D48C16C41F00201C164C16C01F081
:103F300002010591C16C41F00101C164C06C022510
:103F400000F0010005904FF4C04000900024CDE93E
:103F500001540626114FCDE9034669463846FEF75F
:103F60008FFDA8030090CDE901540420CDE9034062
:103F700069463846FEF784FD4FF4E0600090CDE9D5
:103F80000154CDE9034669464FF09040FEF778FDB5
:103F900007B0F0BD002C01400010024000040048B2
:103FA000704770B5044690F83C000D4601280BD0D0
:103FB000012084F83C000C2A45D007DC5AB1042AC1
:103FC0001BD0082A78D12CE0022070BD102A4ED0D8
:103FD000142A71D15DE0206800F098FF20688169A3
:103FE00041F0080181612068816921F0040181614B
:103FF000206881692A69114311E0206800F0DCFF24
:104000002068816941F4006181612068816921F43F
:1040100080618161206881692A6941EA02218161A8
:104020004AE0206801F018F82068C16941F00801F1
:10403000C1612068C16921F00401C1612068C169C2
:104040002A69114311E0206801F056F82068C1691F
:1040500041F40061C1612068C16921F48061C161DE
:104060002068C1692A6941EA0221C16124E020680F
:1040700001F092F82068016D41F0080101652068A7
:10408000016D21F0040101652068016D2A69114369
:1040900011E0206801F0BCF82068016D41F4006176
:1040A00001652068016D21F4806101652068016D62
:1040B0002A6941EA02210165002084F83C0070BDB4
:1040C00010B5040003D094F83D0010B107E00120C2
:1040D00010BD002084F83C00204600F022F80220A9
:1040E00084F83D00211D206800F078FE012084F84E
:1040F000480084F83E0084F83F0084F8400084F8CB
:10410000410084F8420084F8430084F8440084F8B5
:10411000450084F8460084F8470084F83D000020FC
:1041200010BD70477047000070B50446022269B1A7
:10413000042912D0082917D00C291CD0102921D00D
:1041400094F84300012824D0012070BD94F83E006B
:104150000128F9D184F83E201DE094F83F000128A1
:10416000F2D184F83F2016E094F840000128EBD10A
:1041700084F840200FE094F841000128E4D184F84D
:10418000412008E094F842000128DDD184F8422063
:1041900001E084F843200122206800F089FE1D49D7
:1041A00020681D4A1D4B1E4D88420BD0904209D0FD
:1041B000984207D01B4EB04204D01B4EB04201D0F3
:1041C000A84203D1466C46F4004646642068884203
:1041D00011D0B0F1804F0ED0144988420BD0144951
:1041E000884208D01349884205D0904203D09842B3
:1041F00001D0A84207D181680F4A1140062906D094
:10420000B1F5803F03D0016841F001010160002059
:1042100070BD0000002C014000340140004001400E
:1042200000500140004401400048014000040040AB
:1042300000080040000C00400700010030B50446B3
:104240000D460068002200F033FE244B41F21111AC
:1042500020688A0098420ED0214B98420BD0214B07
:10426000984208D0204B984205D0204B984202D06B
:104270001F4B984209D1036A0B4206D1036A1342CD
:1042800003D1436C23F4004343642068036A0B4268
:1042900006D1016A114203D1016821F001010160D8
:1042A00001205DB1042D0CD0082D0DD00C2D0ED0A9
:1042B000102D0FD084F84300002030BD84F83E005C
:1042C000FAE784F83F00F7E784F84000F4E784F861
:1042D0004100F1E784F84200EEE70000002C0140C5
:1042E00000340140004001400044014000480140CA
:1042F000005001407047704790F88010012918D095
:10430000012180F880102421C0F8841050F8641B2B
:104310000A680B6823F001030B6022F000510022B1
:10432000026050F8643C1960202101620277104657
:104330007047022070477047704770B5044690F888
:10434000800001281DD0012084F880002420C4F8BA
:10435000840020680568026822F00102026020687B
:10436000826822F060620A438260204600F0B2FF59
:10437000206805602020C4F88400002084F88000B4
:1043800070BD022070BD70B5044690F88000012811
:104390001DD0012084F880002420C4F88400206807
:1043A0000568026822F0010202602068826822F03B
:1043B00060420A438260204600F08CFF206805605E
:1043C0002020C4F88400002084F8800070BD022002
:1043D00070BD7047704770472DE9F041036804468F
:1043E000D86919689A6840F60F0528424FF0000511
:1043F00009D186067ED501F0200602F080573E43A3
:1044000078D0216FFFE0924E924F16400F40374315
:1044100070D0C70709D0CF0507D501271F62D4F890
:104420008C3043F00103C4F88C3083070AD5D307DE
:1044300008D0276802233B62D4F88C3043F0040391
:10444000C4F88C3043070AD5D30708D02768042363
:104450003B62D4F88C3043F00203C4F88C3003077D
:104460000CD501F02003334308D0266808233362BB
:10447000D4F88C3043F00803C4F88C3003050BD516
:104480004B0109D526684FF400633362D4F88C30B1
:1044900043F02003C4F88C30D4F88C30002B34D097
:1044A000800609D501F0200002F08051084303D0B6
:1044B000216F09B120468847D4F88C0021688968AB
:1044C000490602D410F0280F21D0204601F008F848
:1044D00020688168490615D5816821F04001816016
:1044E000E06F78B15C498163E06FFEF704F9002862
:1044F0000BD000E011E0E06F816B00E02046BDE8EA
:10450000F04108472046FFF766FFBDE8F0812046EE
:10451000FFF761FFC4F88C50F7E7E76E2026012F04
:104520005CD1C7065AD5CF0658D51020186220682E
:10453000816849062FD5E26F116849680904090CA2
:10454000E3D0B4F85C308B42DFD9A4F85E10116878
:104550000968890618D4016821F480710160206817
:10456000816821F0010181602068816821F04001AB
:104570008160C4F88860E5662068016821F0100158
:104580000160E06FFEF782F8B4F85C00B4F85E10EA
:10459000401A81B21EE0B4F85C10B4F85E20891AAB
:1045A000B4F85E2089B2002AAFD00029ADD00268ED
:1045B00022F49072026020688268254BDB431A4027
:1045C0008260C4F88860E56625672068026822F08A
:1045D000100202602046FFF7AEFE96E7C70209D53B
:1045E000570207D54FF4801018622046BDE8F0410D
:1045F000FFF7F0BE07060AD501F0800702F40002BB
:10460000174304D0616F00297FF478AF7DE742063D
:104610000CD54A060AD51968204621F040011960D8
:10462000C4F88460656700F0EFF86EE7020206D513
:104630004A0004D52046BDE8F041FFF7CABEC001DC
:10464000CBD50029C9DA2046BDE8F041FFF774BE9A
:1046500001000010200100044154000810B50400BE
:1046600003D0D4F8840010B107E0012010BD002071
:1046700084F88000204600F027F82420C4F8840045
:104680002068016821F001010160204600F052FF1E
:104690000128EBD0A06A10B1204600F03DFE206852
:1046A000416821F4904141602068816821F02A012D
:1046B00081602068016841F0010101602046BDE889
:1046C000104000F08DBE000070B586B00646142183
:1046D0006846FBF768FE2149306888423CD1204992
:1046E000886D40F480208865886D00F480200590F6
:1046F000C86C40F00200C864C86C002500F00200DD
:1047000005904FF4406000900220CDE9010507209C
:10471000CDE9035069461348FEF7B2F9134C12482D
:1047200020601D2060601020C4E902058020C4E9DB
:104730000405A561E56120462562FEF775F808B11C
:10474000FBF78FFFB467002211462720A662FEF711
:10475000EFFA2720FEF7DEFA06B070BD00480040F1
:104760000010024000040048080002404C020020F3
:1047700070B50446D0F8840020283DD171B36AB3E7
:1047800094F88000012837D0012084F8800021654A
:10479000A4F85420A4F856200025C4F88C502120F9
:1047A000C4F88400A06FD8B11449C162A16F144845
:1047B00013460863A16F13484863A06F856326689A
:1047C000216D06F12802A06FFEF78EF840B110208F
:1047D000C4F88C0004F8805F20206060012070BD68
:1047E00021684020086284F880502068816841F088
:1047F00080018160002070BD022070BDA5540008BA
:10480000D55400085554000870477047FEE700EB88
:104810008100006E00F0F840704700EB8100006EF0
:1048200000F0F84070478068C0F3C00070478068AF
:10483000C0F3C00070478068C0F380007047806894
:10484000C0F380007047C06810F4406F01D00020B2
:10485000704701207047042303EAD15310B5184470
:104860004369C1F3045107248C40A3438A40134396
:10487000436110BD042303EAD15310B518444369C2
:10488000C1F3045107248C40A3438A40134343617E
:1048900010BD00EB8100016E21F000411143016663
:1048A000704700EB8100016E21F000411143016669
:1048B0007047000070B59AB0002417941894202116
:1048C0000FA81994FBF76FFD3C216846FBF76BFDC1
:1048D00037484FF0A041012501604FF44031C0E955
:1048E000011400F110010426C46081E8700004770F
:1048F0004477056280F82440C462046380F838403D
:10490000C46380F84040FDF745FD08B1FBF7A9FE00
:1049100017A927481794FDF7FBF808B1FBF7A1FE8C
:1049200024480F900620CDE910057F251295CDE98A
:1049300013640FA91E48FDF799F908B1FBF791FE22
:104940001D48009001A9092081E87100032008900A
:10495000059484200A908DF8244080208DF825400D
:104960000B908DF826408DF8304069461048FCF7D2
:104970003DFC08B1FBF775FE1048009040F20F10A7
:10498000019069460A48FCF731FC08B1FBF769FE63
:104990000B48009040F21520019069460448FCF74E
:1049A00025FC002801D0FBF75CFE1AB070BD0000AA
:1049B000980000201000C0100200300404006008BD
:1049C0000800900CF0B597B020210FA8FBF7EBFC86
:1049D0003C216846FBF7E7FC2C482B49002401608A
:1049E0004FF44031C0E9011400F110010125042603
:1049F000C46081E8700004774477056280F8244041
:104A0000C462046380F83840C46380F84040FDF716
:104A1000C1FC08B1FBF725FE0620CDE910051C4FAF
:104A20007F250F971295CDE913640FA91748FDF75D
:104A30001DF908B1FBF715FE01A90920009781E8CF
:104A4000710002208DF82440059408908DF82540CF
:104A50008DF826400A940B948DF8304069460B4837
:104A6000FCF7C4FB08B1FBF7FCFD0A48009040F2DC
:104A70000F10019069460548FCF7B8FB002801D0EB
:104A8000FBF7EFFD17B0F0BD00010050040100205E
:104A90002000F0140008302E0D4808B5816C41F05C
:104AA00004018164816C01F004010091816C41F08A
:104AB00001018164806C002200F001000090114629
:104AC0000B20FEF735F9BDE808400B20FEF722B9B0
:104AD0000010024030B587B014216846FBF763FC34
:104AE0002348C16C41F00401C164C16C01F00401B0
:104AF0000591C16C41F02001C164C16C01F020013D
:104B00000591C16C41F00101C164C16C01F001016A
:104B10000591C16C41F00201C164C06C154D00F0FB
:104B200002004FF460440590002221462846FEF71B
:104B300093F80121CDE900410024CDE90214694632
:104B40002846FDF79DFF4FF4707000900A48CDE9AC
:104B5000010469462846FDF793FF002211461720FD
:104B6000FEF7E6F81720FEF7D5F807B030BD0000D5
:104B700000100240000800480000111030B59BB042
:104B8000002419941A9417941894149415941C21C1
:104B900068461694FBF707FC342107A8FBF703FCD3
:104BA0003C483B49C0E900142021816041F63F7137
:104BB000C1604FF4807101610121C0E90514FEF765
:104BC00096FF08B1FBF74DFD4FF48050179017A9E1
:104BD0003048FFF72BF808B1FBF743FD2D48FFF7EE
:104BE0006FFA08B1FBF73DFD7025CDE9145414A907
:104BF00028481694FEF784FE08B1FBF732FD6020CA
:104C0000CDE90004029403940494059400226946BB
:104C100020480694FFF7C5F908B1FBF722FD0422EE
:104C200069461C48FFF7BDF908B1FBF71AFD0822D9
:104C300069461848FFF7B5F908B1FBF712FD41F6D0
:104C40003E70CDE900500C2269461248FFF7A9F9E1
:104C500008B1FBF706FD079478200894CDE90940D8
:104C60004FF40050CDE90B400D9400030E94CDE9B4
:104C70000F401194129407A906481394FEF7D6FD2D
:104C800008B1FBF7EEFC0348FFF740F91BB030BD5D
:104C9000002C014070010020174810B51549016033
:104CA00016494160002181600C22C160C0E90412F4
:104CB0008161C161016241628162FFF7CFFC08B18D
:104CC000FBF7CFFC00210C48FFF75DFB08B1FBF7B9
:104CD000C8FC00210848FFF730FB08B1FBF7C1FC16
:104CE0000548FFF709FB002803D0BDE81040FBF79B
:104CF000B8BC10BD00480040BC0100200094110069
:104D0000FEE7FEE770470000202202490248FFF755
:104D10002FBD000078000020BC0100207047FDF787
:104D2000A7BF10B5A8B0382115A8FBF73CFB14218C
:104D300023A8FBF738FB54216846FBF734FB00201F
:104D4000FEF728F801210804CDE9151002200324FC
:104D50001C90CDE91D412821CDE91F102190229002
:104D600015A8FEF745FB08B172B6FEE70F20CDE9A6
:104D70002304002425942694042123A82794FEF7D5
:104D8000EFF908B172B6FEE748F204000090C006E1
:104D9000119003946846FEF763F8002801D072B6BC
:104DA000FEE728B010BD00000248016841F4700120
:104DB0000160704788ED00E00148FEF7A8BF0000E1
:104DC000700100200148FEF7A2BF00007001002022
:104DD0000148FEF79CBF0000700100202DE9F04F54
:104DE00002682A4B2A4E2B4FDFF8ACC02B4C2C4DBF
:104DF0004FF0804B98420BD0584509D0B04207D0B5
:104E0000B84205D0604503D0A04201D0A84204D1E9
:104E100022F070084A6842EA0802DFF88880DFF86A
:104E20008890DFF888A0984211D058450FD0B04242
:104E30000DD0B8420BD0604509D0A04207D0404504
:104E400005D0484503D0504501D0A84203D122F4F3
:104E50004076CA6832434E6922F0800232430260D3
:104E60008A68C2620A688262984209D0A04207D06A
:104E7000404505D0484503D0504501D0A84201D156
:104E80000969016301214161BDE8F08F002C0140F7
:104E90000004004000080040000C004000340140C5
:104EA00000500140004001400044014000480140E2
:104EB00010B501F01F030121046A99408C4304627C
:104EC000016A9A401143016210BD10B501F01F0341
:104ED0000421046A99408C430462016A9A40114398
:104EE000016210BD10B5846842EA032224F47F44B5
:104EF0000A432243826010BD8268034B1A400A4372
:104F000042F00701816070478FFFCFFF2DE9F04726
:104F1000026A22F001020262056A436882691F4C3C
:104F200025F0020522400C6822F0030214438A682F
:104F30001C4E2A431A4D1C4FDFF870C0DFF87090EA
:104F4000DFF870A0A84209D0B04207D0B84205D01F
:104F5000604503D0484501D0504506D122F00808ED
:104F6000CA6842EA080222F00402A84209D0B0420C
:104F700007D0B84205D0604503D0484501D0504520
:104F800005D14D6923F440731D438B692B43436066
:104F90008461496841630262BDE8F0878FFFFEFFCC
:104FA000002C014000340140004001400044014019
:104FB0000048014000500140F0B5026A22F01002A2
:104FC0000262056A426883691C4C1E4E23400C68CD
:104FD00023F4407343EA042425F020038D681A4F1C
:104FE00043EA0513164DA84203D0B04201D0B8429F
:104FF00007D1D1F80CC023F0800343EA0C1323F04F
:105000004003A8420CD0B0420AD0104DA84207D0AD
:105010000F4DA84204D00F4DA84201D0B84207D18D
:105020004D6922F4406242EA85028D6942EA8502B6
:1050300042608461496881630362F0BDFF8FFFFEB7
:10504000002C01400034014000500140004001406C
:105050000044014000480140F0B5026A22F4807229
:105060000262056A4268C3691C4C1E4E23400C68EC
:1050700023F003031C4325F400738D681A4F43EAA1
:105080000523174DA84203D0B04201D0B84207D142
:10509000D1F80CC023F4006343EA0C2323F48063AB
:1050A000A8420CD0B0420AD0104DA84207D0104DF3
:1050B000A84204D00F4DA84201D0B84207D14D6993
:1050C00022F4405242EA05128D6942EA051242601A
:1050D000C4614968C1630362F0BD00008FFFFEFF39
:1050E000002C0140003401400050014000400140CC
:1050F0000044014000480140F0B5026A22F48052A9
:105100000262056A4268C3691C4C1E4E23400C684B
:1051100023F4407343EA042425F400538D681A4FA6
:1051200043EA0533164DA84203D0B04201D0B8423D
:1051300007D1D1F80CC023F4004343EA0C3323F425
:105140008043A8420CD0B0420AD0104DA84207D0EC
:105150000F4DA84204D00F4DA84201D0B84207D14C
:105160004D6922F4404242EA85128D6942EA851275
:105170004260C461496801640362F0BDFF8FFFFEB5
:10518000002C01400034014000500140004001402B
:10519000004401400048014030B5026A22F48032E8
:1051A0000262046A4268036D124D2B400D681D4374
:1051B00024F400330C8943EA04430F4CA0420ED080
:1051C0000E4CA0420BD00E4CA04208D00D4CA04279
:1051D00005D00D4CA04202D00C4CA04204D14C6929
:1051E00022F4803242EA0422426005654968816403
:1051F000036230BD8FFFFEFF002C014000340140F0
:10520000004001400044014000480140005001407E
:1052100030B5026A22F480120262046A4268036DA9
:10522000134D24F400142B400D6843EA05230D8927
:1052300044EA05540F4DA8420ED00F4DA8420BD0A2
:105240000E4DA84208D00E4DA84205D00D4DA842E3
:1052500002D00D4DA84204D14D6922F4802242EAC9
:105260008522426003654968C164046230BD000064
:10527000FF8FFFFE002C0140003401400040014040
:1052800000440140004801400050014010B5036A4D
:10529000046A24F001040462846924F0F00444EAFE
:1052A000021423F00A020A438461026210BD10B5A1
:1052B000036A23F0100303628369046A23F47043D2
:1052C00043EA023224F0A00343EA01118261016241
:1052D00010BD000030B5416EB9B1026891689268A6
:1052E000C1F342610B4B520F9C5CE50003F10804D3
:1052F000A25CB5FBF2F2A0F86A205A5C615CD200B5
:10530000B2FBF1F1A0F8681030BD0121A0F86A10DD
:10531000F8E70000D867000890F82810C90706D001
:1053200001684A68C36A22F400321A434A6090F85E
:105330002810890706D501684A68036B22F4803279
:105340001A434A6090F82810490706D501684A6850
:10535000436B22F480221A434A6090F82810090710
:1053600006D501684A68836B22F400421A434A60FA
:1053700090F82810C90606D501688A68C36B22F424
:1053800080521A438A6090F82810890606D5016871
:105390008A68036C22F400521A438A6090F828103D
:1053A000490611D501684A68436C22F480121A43F9
:1053B0004A60416CB1F5801F06D101684A68836C70
:1053C00022F4C0021A434A6090F82810090606D554
:1053D00001684A68C06C22F4002202434A607047A8
:1053E000F8B500260446C0F88C60FDF73BFC054686
:1053F000206800686FF07E47000708D52B46002222
:105400004FF400112046009700F0E2F960B92068DF
:10541000006840070AD52B4600224FF48001204641
:10542000009700F0D5F908B10320F8BD2020C4F89A
:105430008400C4F8880044F86C6F00202675F8BD1D
:1054400010B5806A0021A0F85E10A0F85610FEF793
:10545000C2FF10BD70B5846AD4F88400D4F88850B7
:10546000216889684FF00006090606D5212804D175
:10547000A4F85660204600F04FF820688068400687
:1054800006D5222D04D1A4F85E60204600F028F84D
:10549000D4F88C0040F01000C4F88C002046FEF7D1
:1054A0009AFF70BD10B50146806A096809688906CF
:1054B0000DD40021A0F8561001688A6822F08002FD
:1054C0008A600068016841F04001016010BDFFF78B
:1054D0009BF910BD10B5806AFFF797F910BD000069
:1054E00001680A6822F490720A6001688A68094BB0
:1054F0001A408A60C16E012904D101680A6822F04D
:1055000010020A602021C0F888100021C1660167DE
:1055100070470000FEFFFFEF01680A6822F0C0023A
:105520000A6001688A6822F400028A602021C0F8BB
:10553000841070472DE9F0410446016880682269B3
:10554000E3691043626900251A431043DFF850C233
:105550000A68944B1A4002430A6020684168E26876
:1055600021F44051114341602168A069614501D097
:10557000226A10438A688C4B1A4002438A60206872
:10558000C16A626A21F00F011143C1628749236831
:1055900087488B420DD1D0F8880010F0030006D068
:1055A000012867D0022854D0032851D164E001209B
:1055B0004FE080498B420BD1D0F8880010F00C00EE
:1055C00047D0042845D0082852D00C2840D153E0B9
:1055D00079498B420BD1D0F8880010F0300038D0D8
:1055E000102847D0202843D0302831D144E07349D7
:1055F0008B420BD1D0F8880010F0C00029D0402891
:1056000038D0802834D0C02822D135E06C498B4274
:105610000ED1D0F8880010F440701AD0B0F5807F19
:1056200028D0B0F5007F23D0B0F5407F10D123E023
:1056300063450DD1D0F8880010F4406009D0B0F572
:10564000806F17D0B0F5006F12D0B0F5406F13D057
:1056500010205C4A5C4F00264FF40041634539D16D
:1056600060B102280DD004280DD0082831D10EE0F9
:105670000220EEE70420ECE70820EAE7FDF75EFEF3
:1056800003E0114603E0FDF77DFE01007DD0606A76
:1056900037F810206768B1FBF2F007EB470383424D
:1056A0006CD8B0EB073F69D8002308461946FAF7D3
:1056B00003FE090241EA10610202780810187141E4
:1056C0003A460023FAF7F8FD404AA0F540719142AE
:1056D00059D953E0E3694FF6EF788B422DD1092871
:1056E0004CD2DFE800F005080D4B274B4B4B0E006A
:1056F000FDF724FE01E0FDF733FE010001D144E097
:105700001146606A37F81000B1FBF0F041006068A4
:1057100001EB5001B1FBF0F080B2A0F11001414566
:105720002CD84FF6F0710140C0F3420001432068CD
:10573000C1602AE0FDF726FEDFE709281ED2DFE878
:1057400000F005080D1D1F1D1D1D0E00FDF7F6FDC7
:1057500001E0FDF705FE010001D116E01146606A87
:1057600037F81000B1FBF0F1606801EB5001B1FBBC
:10577000F0F080B2A0F11001414504D9012504E008
:10578000FDF700FEE7E72168C8600120A4F86A0081
:1057900024F8680F2846A660E660BDE8F0810000A6
:1057A00000800040F369FFCFFFF4FF110038014093
:1057B000001002400044004000480040004C0040FF
:1057C000005000400024F400C0670008FFFC0F00F8
:1057D0002DE9F0479A4617460E4604464FF0000959
:1057E0004FF02008089D39E0681C37D0FDF73AFAE1
:1057F000A0EB0A00A84222D80DB32068016849072F
:105800002CD5C069C043000528D421684FF400603E
:1058100008622068016821F4D07101602068816805
:1058200021F001018160C4F88480C4F88880C4F844
:105830008C8000BF84F880900320BDE8F08720684A
:10584000016821F4D07101602068816821F00101B4
:105850008160C4F88480C4F88880EBE72068C06960
:1058600036EA000004D00020B842BDD00020E4E7B2
:105870000120F9E70148FEF7AFBD0000BC010020A0
:10588000FEE74100080218BF04200A0E18BF40F0CE
:1058900001004FF07F4232EA010108BF40F00200F0
:1058A000012808BF052070470907090E002804DBFE
:1058B00000F1E02080F80014704700F00F0000F1C4
:1058C000E02080F8141D704710EE101A08B5444A05
:1058D0006846B2EB410F28D94FF0E640B0EB410FDC
:1058E00094BF00204FF0FF3000900098002861DB4B
:1058F00060EE000A10F0010F45D010F0020FDFED4E
:10590000391A9FED391A00EEE11ADFED381A40EE30
:10591000811A21EEA01AF0EE400A40EE010A08BFFB
:10592000F1EE600AB0EE600A08BD314B21F0004292
:1059300093423CD911F0004FDFED2E0A20EE201AE1
:10594000DFED2D0A19BF31EE601A71EE200A31EE3B
:10595000201A71EE600ABDEEE01A11EE100A9FEDFA
:10596000271A00F0030000EEC10A9FED251A0090EF
:1059700000EEC10A9FED231A00EEC10A9FED221A24
:1059800000EEC10AB1E79FED211A9FED210A10F048
:10599000020F00EE810A9FED1F1A00EE801AB7EE8B
:1059A000000A00EE810A18BFB1EE400A08BD00F0FF
:1059B0009FF99AE710EE100A4000B0F17F4F3CBF0C
:1059C000B7EE000A08BD07D14FF00100FAF71AFD43
:1059D000BDE8084000F07CB9BDE8084000F074B9AB
:1059E000B61F927E336D4C39DA82083CA0AA2ABEDB
:1059F000490E494683F9223F0000004B0000C93F91
:105A000000A0FD390020A2331A61342CB93AB2BA91
:105A1000CA9F2A3DDDFFFFBE10EE100AC0F3C7513A
:105A20007F391729A8BF7047DFED140A002970EEEF
:105A3000200A0DDAF5EEC00AF1EE10FA1ADD0028A0
:105A4000A8BF002016DAB0F1004F18BF0C4811E0D3
:105A50000C4ACA40104208BF7047F5EEC00AF1EE8A
:105A600010FA07DD002804DA4FF4000323FA01F1ED
:105A70000844904300EE100A70470000CAF24971D2
:105A8000000080BFFFFF7F0010B52DED028BF0EE10
:105A9000408A18EE900AB0EE608A20F00040C0F113
:105AA000FF40C00F07D118EE100A20F00040C0F1EF
:105AB000FF40C00F2BD018EE101A18EE900A00F01D
:105AC00005FE00EE100A10EE100A6FEAD05010F03A
:105AD000FF0F04BFBDEC028B10BD18EE900A00F062
